{
	"contracts/my_mapping.sol": {
		"MyMapping": {
			"abi": [
				{
					"inputs": [
						{
							"internalType": "address",
							"name": "_key",
							"type": "address"
						}
					],
					"name": "getStorageSlot",
					"outputs": [
						{
							"internalType": "bytes32",
							"name": "slot",
							"type": "bytes32"
						}
					],
					"stateMutability": "pure",
					"type": "function"
				},
				{
					"inputs": [
						{
							"internalType": "address",
							"name": "_key",
							"type": "address"
						}
					],
					"name": "getValue",
					"outputs": [
						{
							"internalType": "uint256",
							"name": "value",
							"type": "uint256"
						}
					],
					"stateMutability": "view",
					"type": "function"
				},
				{
					"inputs": [],
					"name": "setValues",
					"outputs": [],
					"stateMutability": "nonpayable",
					"type": "function"
				}
			],
			"devdoc": {
				"kind": "dev",
				"methods": {},
				"version": 1
			},
			"evm": {
				"assembly": "    /* \"contracts/my_mapping.sol\":58:929  contract MyMapping {... */\n  mstore(0x40, 0x80)\n  callvalue\n  dup1\n  iszero\n  tag_1\n  jumpi\n  0x00\n  dup1\n  revert\ntag_1:\n  pop\n  dataSize(sub_0)\n  dup1\n  dataOffset(sub_0)\n  0x00\n  codecopy\n  0x00\n  return\nstop\n\nsub_0: assembly {\n        /* \"contracts/my_mapping.sol\":58:929  contract MyMapping {... */\n      mstore(0x40, 0x80)\n      callvalue\n      dup1\n      iszero\n      tag_1\n      jumpi\n      0x00\n      dup1\n      revert\n    tag_1:\n      pop\n      jumpi(tag_2, lt(calldatasize, 0x04))\n      shr(0xe0, calldataload(0x00))\n      dup1\n      0x3ccc0522\n      eq\n      tag_3\n      jumpi\n      dup1\n      0x5335c550\n      eq\n      tag_4\n      jumpi\n      dup1\n      0x800509d5\n      eq\n      tag_5\n      jumpi\n    tag_2:\n      0x00\n      dup1\n      revert\n        /* \"contracts/my_mapping.sol\":654:927  function getValue(address _key) public view returns (uint256 value) {... */\n    tag_3:\n      tag_6\n      0x04\n      dup1\n      calldatasize\n      sub\n      dup2\n      add\n      swap1\n      tag_7\n      swap2\n      swap1\n      tag_8\n      jump\t// in\n    tag_7:\n      tag_9\n      jump\t// in\n    tag_6:\n      mload(0x40)\n      tag_10\n      swap2\n      swap1\n      tag_11\n      jump\t// in\n    tag_10:\n      mload(0x40)\n      dup1\n      swap2\n      sub\n      swap1\n      return\n        /* \"contracts/my_mapping.sol\":265:648  function getStorageSlot(address _key) public pure returns (bytes32 slot) {... */\n    tag_4:\n      tag_12\n      0x04\n      dup1\n      calldatasize\n      sub\n      dup2\n      add\n      swap1\n      tag_13\n      swap2\n      swap1\n      tag_8\n      jump\t// in\n    tag_13:\n      tag_14\n      jump\t// in\n    tag_12:\n      mload(0x40)\n      tag_15\n      swap2\n      swap1\n      tag_16\n      jump\t// in\n    tag_15:\n      mload(0x40)\n      dup1\n      swap2\n      sub\n      swap1\n      return\n        /* \"contracts/my_mapping.sol\":151:259  function setValues() public {... */\n    tag_5:\n      tag_17\n      tag_18\n      jump\t// in\n    tag_17:\n      stop\n        /* \"contracts/my_mapping.sol\":654:927  function getValue(address _key) public view returns (uint256 value) {... */\n    tag_9:\n        /* \"contracts/my_mapping.sol\":707:720  uint256 value */\n      0x00\n        /* \"contracts/my_mapping.sol\":772:784  bytes32 slot */\n      dup1\n        /* \"contracts/my_mapping.sol\":787:807  getStorageSlot(_key) */\n      tag_20\n        /* \"contracts/my_mapping.sol\":802:806  _key */\n      dup4\n        /* \"contracts/my_mapping.sol\":787:801  getStorageSlot */\n      tag_14\n        /* \"contracts/my_mapping.sol\":787:807  getStorageSlot(_key) */\n      jump\t// in\n    tag_20:\n        /* \"contracts/my_mapping.sol\":772:807  bytes32 slot = getStorageSlot(_key) */\n      swap1\n      pop\n        /* \"contracts/my_mapping.sol\":906:910  slot */\n      dup1\n        /* \"contracts/my_mapping.sol\":900:911  sload(slot) */\n      sload\n        /* \"contracts/my_mapping.sol\":891:911  value := sload(slot) */\n      swap2\n      pop\n        /* \"contracts/my_mapping.sol\":827:921  {... */\n      pop\n        /* \"contracts/my_mapping.sol\":654:927  function getValue(address _key) public view returns (uint256 value) {... */\n      swap2\n      swap1\n      pop\n      jump\t// out\n        /* \"contracts/my_mapping.sol\":265:648  function getStorageSlot(address _key) public pure returns (bytes32 slot) {... */\n    tag_14:\n        /* \"contracts/my_mapping.sol\":324:336  bytes32 slot */\n      0x00\n        /* \"contracts/my_mapping.sol\":348:374  uint256 balanceMappingSlot */\n      dup1\n        /* \"contracts/my_mapping.sol\":555:567  balance.slot */\n      0x00\n        /* \"contracts/my_mapping.sol\":533:567  balanceMappingSlot := balance.slot */\n      swap1\n      pop\n        /* \"contracts/my_mapping.sol\":615:619  _key */\n      dup3\n        /* \"contracts/my_mapping.sol\":621:639  balanceMappingSlot */\n      dup2\n        /* \"contracts/my_mapping.sol\":604:640  abi.encode(_key, balanceMappingSlot) */\n      add(0x20, mload(0x40))\n      tag_22\n      swap3\n      swap2\n      swap1\n      tag_23\n      jump\t// in\n    tag_22:\n      mload(0x40)\n      0x20\n      dup2\n      dup4\n      sub\n      sub\n      dup2\n      mstore\n      swap1\n      0x40\n      mstore\n        /* \"contracts/my_mapping.sol\":594:641  keccak256(abi.encode(_key, balanceMappingSlot)) */\n      dup1\n      mload\n      swap1\n      0x20\n      add\n      keccak256\n        /* \"contracts/my_mapping.sol\":587:641  slot = keccak256(abi.encode(_key, balanceMappingSlot)) */\n      swap2\n      pop\n        /* \"contracts/my_mapping.sol\":338:648  {... */\n      pop\n        /* \"contracts/my_mapping.sol\":265:648  function getStorageSlot(address _key) public pure returns (bytes32 slot) {... */\n      swap2\n      swap1\n      pop\n      jump\t// out\n        /* \"contracts/my_mapping.sol\":151:259  function setValues() public {... */\n    tag_18:\n        /* \"contracts/my_mapping.sol\":214:215  9 */\n      0x09\n        /* \"contracts/my_mapping.sol\":189:196  balance */\n      0x00\n        /* \"contracts/my_mapping.sol\":189:211  balance[address(0x01)] */\n      dup1\n        /* \"contracts/my_mapping.sol\":205:209  0x01 */\n      0x01\n        /* \"contracts/my_mapping.sol\":189:211  balance[address(0x01)] */\n      0xffffffffffffffffffffffffffffffffffffffff\n      and\n      0xffffffffffffffffffffffffffffffffffffffff\n      and\n      dup2\n      mstore\n      0x20\n      add\n      swap1\n      dup2\n      mstore\n      0x20\n      add\n      0x00\n      keccak256\n        /* \"contracts/my_mapping.sol\":189:215  balance[address(0x01)] = 9 */\n      dup2\n      swap1\n      sstore\n      pop\n        /* \"contracts/my_mapping.sol\":250:252  10 */\n      0x0a\n        /* \"contracts/my_mapping.sol\":225:232  balance */\n      0x00\n        /* \"contracts/my_mapping.sol\":225:247  balance[address(0x03)] */\n      dup1\n        /* \"contracts/my_mapping.sol\":241:245  0x03 */\n      0x03\n        /* \"contracts/my_mapping.sol\":225:247  balance[address(0x03)] */\n      0xffffffffffffffffffffffffffffffffffffffff\n      and\n      0xffffffffffffffffffffffffffffffffffffffff\n      and\n      dup2\n      mstore\n      0x20\n      add\n      swap1\n      dup2\n      mstore\n      0x20\n      add\n      0x00\n      keccak256\n        /* \"contracts/my_mapping.sol\":225:252  balance[address(0x03)] = 10 */\n      dup2\n      swap1\n      sstore\n      pop\n        /* \"contracts/my_mapping.sol\":151:259  function setValues() public {... */\n      jump\t// out\n        /* \"#utility.yul\":88:205   */\n    tag_26:\n        /* \"#utility.yul\":197:198   */\n      0x00\n        /* \"#utility.yul\":194:195   */\n      dup1\n        /* \"#utility.yul\":187:199   */\n      revert\n        /* \"#utility.yul\":334:460   */\n    tag_28:\n        /* \"#utility.yul\":371:378   */\n      0x00\n        /* \"#utility.yul\":411:453   */\n      0xffffffffffffffffffffffffffffffffffffffff\n        /* \"#utility.yul\":404:409   */\n      dup3\n        /* \"#utility.yul\":400:454   */\n      and\n        /* \"#utility.yul\":389:454   */\n      swap1\n      pop\n        /* \"#utility.yul\":334:460   */\n      swap2\n      swap1\n      pop\n      jump\t// out\n        /* \"#utility.yul\":466:562   */\n    tag_29:\n        /* \"#utility.yul\":503:510   */\n      0x00\n        /* \"#utility.yul\":532:556   */\n      tag_43\n        /* \"#utility.yul\":550:555   */\n      dup3\n        /* \"#utility.yul\":532:556   */\n      tag_28\n      jump\t// in\n    tag_43:\n        /* \"#utility.yul\":521:556   */\n      swap1\n      pop\n        /* \"#utility.yul\":466:562   */\n      swap2\n      swap1\n      pop\n      jump\t// out\n        /* \"#utility.yul\":568:690   */\n    tag_30:\n        /* \"#utility.yul\":641:665   */\n      tag_45\n        /* \"#utility.yul\":659:664   */\n      dup2\n        /* \"#utility.yul\":641:665   */\n      tag_29\n      jump\t// in\n    tag_45:\n        /* \"#utility.yul\":634:639   */\n      dup2\n        /* \"#utility.yul\":631:666   */\n      eq\n        /* \"#utility.yul\":621:684   */\n      tag_46\n      jumpi\n        /* \"#utility.yul\":680:681   */\n      0x00\n        /* \"#utility.yul\":677:678   */\n      dup1\n        /* \"#utility.yul\":670:682   */\n      revert\n        /* \"#utility.yul\":621:684   */\n    tag_46:\n        /* \"#utility.yul\":568:690   */\n      pop\n      jump\t// out\n        /* \"#utility.yul\":696:835   */\n    tag_31:\n        /* \"#utility.yul\":742:747   */\n      0x00\n        /* \"#utility.yul\":780:786   */\n      dup2\n        /* \"#utility.yul\":767:787   */\n      calldataload\n        /* \"#utility.yul\":758:787   */\n      swap1\n      pop\n        /* \"#utility.yul\":796:829   */\n      tag_48\n        /* \"#utility.yul\":823:828   */\n      dup2\n        /* \"#utility.yul\":796:829   */\n      tag_30\n      jump\t// in\n    tag_48:\n        /* \"#utility.yul\":696:835   */\n      swap3\n      swap2\n      pop\n      pop\n      jump\t// out\n        /* \"#utility.yul\":841:1170   */\n    tag_8:\n        /* \"#utility.yul\":900:906   */\n      0x00\n        /* \"#utility.yul\":949:951   */\n      0x20\n        /* \"#utility.yul\":937:946   */\n      dup3\n        /* \"#utility.yul\":928:935   */\n      dup5\n        /* \"#utility.yul\":924:947   */\n      sub\n        /* \"#utility.yul\":920:952   */\n      slt\n        /* \"#utility.yul\":917:1036   */\n      iszero\n      tag_50\n      jumpi\n        /* \"#utility.yul\":955:1034   */\n      tag_51\n      tag_26\n      jump\t// in\n    tag_51:\n        /* \"#utility.yul\":917:1036   */\n    tag_50:\n        /* \"#utility.yul\":1075:1076   */\n      0x00\n        /* \"#utility.yul\":1100:1153   */\n      tag_52\n        /* \"#utility.yul\":1145:1152   */\n      dup5\n        /* \"#utility.yul\":1136:1142   */\n      dup3\n        /* \"#utility.yul\":1125:1134   */\n      dup6\n        /* \"#utility.yul\":1121:1143   */\n      add\n        /* \"#utility.yul\":1100:1153   */\n      tag_31\n      jump\t// in\n    tag_52:\n        /* \"#utility.yul\":1090:1153   */\n      swap2\n      pop\n        /* \"#utility.yul\":1046:1163   */\n      pop\n        /* \"#utility.yul\":841:1170   */\n      swap3\n      swap2\n      pop\n      pop\n      jump\t// out\n        /* \"#utility.yul\":1176:1253   */\n    tag_32:\n        /* \"#utility.yul\":1213:1220   */\n      0x00\n        /* \"#utility.yul\":1242:1247   */\n      dup2\n        /* \"#utility.yul\":1231:1247   */\n      swap1\n      pop\n        /* \"#utility.yul\":1176:1253   */\n      swap2\n      swap1\n      pop\n      jump\t// out\n        /* \"#utility.yul\":1259:1377   */\n    tag_33:\n        /* \"#utility.yul\":1346:1370   */\n      tag_55\n        /* \"#utility.yul\":1364:1369   */\n      dup2\n        /* \"#utility.yul\":1346:1370   */\n      tag_32\n      jump\t// in\n    tag_55:\n        /* \"#utility.yul\":1341:1344   */\n      dup3\n        /* \"#utility.yul\":1334:1371   */\n      mstore\n        /* \"#utility.yul\":1259:1377   */\n      pop\n      pop\n      jump\t// out\n        /* \"#utility.yul\":1383:1605   */\n    tag_11:\n        /* \"#utility.yul\":1476:1480   */\n      0x00\n        /* \"#utility.yul\":1514:1516   */\n      0x20\n        /* \"#utility.yul\":1503:1512   */\n      dup3\n        /* \"#utility.yul\":1499:1517   */\n      add\n        /* \"#utility.yul\":1491:1517   */\n      swap1\n      pop\n        /* \"#utility.yul\":1527:1598   */\n      tag_57\n        /* \"#utility.yul\":1595:1596   */\n      0x00\n        /* \"#utility.yul\":1584:1593   */\n      dup4\n        /* \"#utility.yul\":1580:1597   */\n      add\n        /* \"#utility.yul\":1571:1577   */\n      dup5\n        /* \"#utility.yul\":1527:1598   */\n      tag_33\n      jump\t// in\n    tag_57:\n        /* \"#utility.yul\":1383:1605   */\n      swap3\n      swap2\n      pop\n      pop\n      jump\t// out\n        /* \"#utility.yul\":1611:1688   */\n    tag_34:\n        /* \"#utility.yul\":1648:1655   */\n      0x00\n        /* \"#utility.yul\":1677:1682   */\n      dup2\n        /* \"#utility.yul\":1666:1682   */\n      swap1\n      pop\n        /* \"#utility.yul\":1611:1688   */\n      swap2\n      swap1\n      pop\n      jump\t// out\n        /* \"#utility.yul\":1694:1812   */\n    tag_35:\n        /* \"#utility.yul\":1781:1805   */\n      tag_60\n        /* \"#utility.yul\":1799:1804   */\n      dup2\n        /* \"#utility.yul\":1781:1805   */\n      tag_34\n      jump\t// in\n    tag_60:\n        /* \"#utility.yul\":1776:1779   */\n      dup3\n        /* \"#utility.yul\":1769:1806   */\n      mstore\n        /* \"#utility.yul\":1694:1812   */\n      pop\n      pop\n      jump\t// out\n        /* \"#utility.yul\":1818:2040   */\n    tag_16:\n        /* \"#utility.yul\":1911:1915   */\n      0x00\n        /* \"#utility.yul\":1949:1951   */\n      0x20\n        /* \"#utility.yul\":1938:1947   */\n      dup3\n        /* \"#utility.yul\":1934:1952   */\n      add\n        /* \"#utility.yul\":1926:1952   */\n      swap1\n      pop\n        /* \"#utility.yul\":1962:2033   */\n      tag_62\n        /* \"#utility.yul\":2030:2031   */\n      0x00\n        /* \"#utility.yul\":2019:2028   */\n      dup4\n        /* \"#utility.yul\":2015:2032   */\n      add\n        /* \"#utility.yul\":2006:2012   */\n      dup5\n        /* \"#utility.yul\":1962:2033   */\n      tag_35\n      jump\t// in\n    tag_62:\n        /* \"#utility.yul\":1818:2040   */\n      swap3\n      swap2\n      pop\n      pop\n      jump\t// out\n        /* \"#utility.yul\":2046:2164   */\n    tag_36:\n        /* \"#utility.yul\":2133:2157   */\n      tag_64\n        /* \"#utility.yul\":2151:2156   */\n      dup2\n        /* \"#utility.yul\":2133:2157   */\n      tag_29\n      jump\t// in\n    tag_64:\n        /* \"#utility.yul\":2128:2131   */\n      dup3\n        /* \"#utility.yul\":2121:2158   */\n      mstore\n        /* \"#utility.yul\":2046:2164   */\n      pop\n      pop\n      jump\t// out\n        /* \"#utility.yul\":2170:2502   */\n    tag_23:\n        /* \"#utility.yul\":2291:2295   */\n      0x00\n        /* \"#utility.yul\":2329:2331   */\n      0x40\n        /* \"#utility.yul\":2318:2327   */\n      dup3\n        /* \"#utility.yul\":2314:2332   */\n      add\n        /* \"#utility.yul\":2306:2332   */\n      swap1\n      pop\n        /* \"#utility.yul\":2342:2413   */\n      tag_66\n        /* \"#utility.yul\":2410:2411   */\n      0x00\n        /* \"#utility.yul\":2399:2408   */\n      dup4\n        /* \"#utility.yul\":2395:2412   */\n      add\n        /* \"#utility.yul\":2386:2392   */\n      dup6\n        /* \"#utility.yul\":2342:2413   */\n      tag_36\n      jump\t// in\n    tag_66:\n        /* \"#utility.yul\":2423:2495   */\n      tag_67\n        /* \"#utility.yul\":2491:2493   */\n      0x20\n        /* \"#utility.yul\":2480:2489   */\n      dup4\n        /* \"#utility.yul\":2476:2494   */\n      add\n        /* \"#utility.yul\":2467:2473   */\n      dup5\n        /* \"#utility.yul\":2423:2495   */\n      tag_33\n      jump\t// in\n    tag_67:\n        /* \"#utility.yul\":2170:2502   */\n      swap4\n      swap3\n      pop\n      pop\n      pop\n      jump\t// out\n\n    auxdata: 0xa26469706673582212208f1c40a7f60204e5108e8f2d7d1d0e65616f0c4d9c817d07dfd7c89864eb6e2e64736f6c634300081a0033\n}\n",
				"bytecode": {
					"linkReferences": {},
					"object": "6080604052348015600e575f80fd5b506102d98061001c5f395ff3fe608060405234801561000f575f80fd5b506004361061003f575f3560e01c80633ccc0522146100435780635335c55014610073578063800509d5146100a3575b5f80fd5b61005d600480360381019061005891906101e0565b6100ad565b60405161006a9190610223565b60405180910390f35b61008d600480360381019061008891906101e0565b6100c4565b60405161009a9190610254565b60405180910390f35b6100ab6100fa565b005b5f806100b8836100c4565b90508054915050919050565b5f805f905082816040516020016100dc92919061027c565b60405160208183030381529060405280519060200120915050919050565b60095f80600173ffffffffffffffffffffffffffffffffffffffff1673ffffffffffffffffffffffffffffffffffffffff1681526020019081526020015f2081905550600a5f80600373ffffffffffffffffffffffffffffffffffffffff1673ffffffffffffffffffffffffffffffffffffffff1681526020019081526020015f2081905550565b5f80fd5b5f73ffffffffffffffffffffffffffffffffffffffff82169050919050565b5f6101af82610186565b9050919050565b6101bf816101a5565b81146101c9575f80fd5b50565b5f813590506101da816101b6565b92915050565b5f602082840312156101f5576101f4610182565b5b5f610202848285016101cc565b91505092915050565b5f819050919050565b61021d8161020b565b82525050565b5f6020820190506102365f830184610214565b92915050565b5f819050919050565b61024e8161023c565b82525050565b5f6020820190506102675f830184610245565b92915050565b610276816101a5565b82525050565b5f60408201905061028f5f83018561026d565b61029c6020830184610214565b939250505056fea26469706673582212208f1c40a7f60204e5108e8f2d7d1d0e65616f0c4d9c817d07dfd7c89864eb6e2e64736f6c634300081a0033",
					"opcodes": "PUSH1 0x80 PUSH1 0x40 MSTORE CALLVALUE DUP1 ISZERO PUSH1 0xE JUMPI PUSH0 DUP1 REVERT JUMPDEST POP PUSH2 0x2D9 DUP1 PUSH2 0x1C PUSH0 CODECOPY PUSH0 RETURN INVALID PUSH1 0x80 PUSH1 0x40 MSTORE CALLVALUE DUP1 ISZERO PUSH2 0xF JUMPI PUSH0 DUP1 REVERT JUMPDEST POP PUSH1 0x4 CALLDATASIZE LT PUSH2 0x3F JUMPI PUSH0 CALLDATALOAD PUSH1 0xE0 SHR DUP1 PUSH4 0x3CCC0522 EQ PUSH2 0x43 JUMPI DUP1 PUSH4 0x5335C550 EQ PUSH2 0x73 JUMPI DUP1 PUSH4 0x800509D5 EQ PUSH2 0xA3 JUMPI JUMPDEST PUSH0 DUP1 REVERT JUMPDEST PUSH2 0x5D PUSH1 0x4 DUP1 CALLDATASIZE SUB DUP2 ADD SWAP1 PUSH2 0x58 SWAP2 SWAP1 PUSH2 0x1E0 JUMP JUMPDEST PUSH2 0xAD JUMP JUMPDEST PUSH1 0x40 MLOAD PUSH2 0x6A SWAP2 SWAP1 PUSH2 0x223 JUMP JUMPDEST PUSH1 0x40 MLOAD DUP1 SWAP2 SUB SWAP1 RETURN JUMPDEST PUSH2 0x8D PUSH1 0x4 DUP1 CALLDATASIZE SUB DUP2 ADD SWAP1 PUSH2 0x88 SWAP2 SWAP1 PUSH2 0x1E0 JUMP JUMPDEST PUSH2 0xC4 JUMP JUMPDEST PUSH1 0x40 MLOAD PUSH2 0x9A SWAP2 SWAP1 PUSH2 0x254 JUMP JUMPDEST PUSH1 0x40 MLOAD DUP1 SWAP2 SUB SWAP1 RETURN JUMPDEST PUSH2 0xAB PUSH2 0xFA JUMP JUMPDEST STOP JUMPDEST PUSH0 DUP1 PUSH2 0xB8 DUP4 PUSH2 0xC4 JUMP JUMPDEST SWAP1 POP DUP1 SLOAD SWAP2 POP POP SWAP2 SWAP1 POP JUMP JUMPDEST PUSH0 DUP1 PUSH0 SWAP1 POP DUP3 DUP2 PUSH1 0x40 MLOAD PUSH1 0x20 ADD PUSH2 0xDC SWAP3 SWAP2 SWAP1 PUSH2 0x27C JUMP JUMPDEST PUSH1 0x40 MLOAD PUSH1 0x20 DUP2 DUP4 SUB SUB DUP2 MSTORE SWAP1 PUSH1 0x40 MSTORE DUP1 MLOAD SWAP1 PUSH1 0x20 ADD KECCAK256 SWAP2 POP POP SWAP2 SWAP1 POP JUMP JUMPDEST PUSH1 0x9 PUSH0 DUP1 PUSH1 0x1 PUSH20 0xFFFFFFFFFFFFFFFFFFFFFFFFFFFFFFFFFFFFFFFF AND PUSH20 0xFFFFFFFFFFFFFFFFFFFFFFFFFFFFFFFFFFFFFFFF AND DUP2 MSTORE PUSH1 0x20 ADD SWAP1 DUP2 MSTORE PUSH1 0x20 ADD PUSH0 KECCAK256 DUP2 SWAP1 SSTORE POP PUSH1 0xA PUSH0 DUP1 PUSH1 0x3 PUSH20 0xFFFFFFFFFFFFFFFFFFFFFFFFFFFFFFFFFFFFFFFF AND PUSH20 0xFFFFFFFFFFFFFFFFFFFFFFFFFFFFFFFFFFFFFFFF AND DUP2 MSTORE PUSH1 0x20 ADD SWAP1 DUP2 MSTORE PUSH1 0x20 ADD PUSH0 KECCAK256 DUP2 SWAP1 SSTORE POP JUMP JUMPDEST PUSH0 DUP1 REVERT JUMPDEST PUSH0 PUSH20 0xFFFFFFFFFFFFFFFFFFFFFFFFFFFFFFFFFFFFFFFF DUP3 AND SWAP1 POP SWAP2 SWAP1 POP JUMP JUMPDEST PUSH0 PUSH2 0x1AF DUP3 PUSH2 0x186 JUMP JUMPDEST SWAP1 POP SWAP2 SWAP1 POP JUMP JUMPDEST PUSH2 0x1BF DUP2 PUSH2 0x1A5 JUMP JUMPDEST DUP2 EQ PUSH2 0x1C9 JUMPI PUSH0 DUP1 REVERT JUMPDEST POP JUMP JUMPDEST PUSH0 DUP2 CALLDATALOAD SWAP1 POP PUSH2 0x1DA DUP2 PUSH2 0x1B6 JUMP JUMPDEST SWAP3 SWAP2 POP POP JUMP JUMPDEST PUSH0 PUSH1 0x20 DUP3 DUP5 SUB SLT ISZERO PUSH2 0x1F5 JUMPI PUSH2 0x1F4 PUSH2 0x182 JUMP JUMPDEST JUMPDEST PUSH0 PUSH2 0x202 DUP5 DUP3 DUP6 ADD PUSH2 0x1CC JUMP JUMPDEST SWAP2 POP POP SWAP3 SWAP2 POP POP JUMP JUMPDEST PUSH0 DUP2 SWAP1 POP SWAP2 SWAP1 POP JUMP JUMPDEST PUSH2 0x21D DUP2 PUSH2 0x20B JUMP JUMPDEST DUP3 MSTORE POP POP JUMP JUMPDEST PUSH0 PUSH1 0x20 DUP3 ADD SWAP1 POP PUSH2 0x236 PUSH0 DUP4 ADD DUP5 PUSH2 0x214 JUMP JUMPDEST SWAP3 SWAP2 POP POP JUMP JUMPDEST PUSH0 DUP2 SWAP1 POP SWAP2 SWAP1 POP JUMP JUMPDEST PUSH2 0x24E DUP2 PUSH2 0x23C JUMP JUMPDEST DUP3 MSTORE POP POP JUMP JUMPDEST PUSH0 PUSH1 0x20 DUP3 ADD SWAP1 POP PUSH2 0x267 PUSH0 DUP4 ADD DUP5 PUSH2 0x245 JUMP JUMPDEST SWAP3 SWAP2 POP POP JUMP JUMPDEST PUSH2 0x276 DUP2 PUSH2 0x1A5 JUMP JUMPDEST DUP3 MSTORE POP POP JUMP JUMPDEST PUSH0 PUSH1 0x40 DUP3 ADD SWAP1 POP PUSH2 0x28F PUSH0 DUP4 ADD DUP6 PUSH2 0x26D JUMP JUMPDEST PUSH2 0x29C PUSH1 0x20 DUP4 ADD DUP5 PUSH2 0x214 JUMP JUMPDEST SWAP4 SWAP3 POP POP POP JUMP INVALID LOG2 PUSH5 0x6970667358 0x22 SLT KECCAK256 DUP16 SHR BLOCKHASH 0xA7 0xF6 MUL DIV 0xE5 LT DUP15 DUP16 0x2D PUSH30 0x1D0E65616F0C4D9C817D07DFD7C89864EB6E2E64736F6C634300081A0033 "
				},
				"gasEstimates": {
					"creation": {
						"codeDepositCost": "145800",
						"executionCost": "188",
						"totalCost": "145988"
					},
					"external": {
						"getStorageSlot(address)": "infinite",
						"getValue(address)": "infinite",
						"setValues()": "44569"
					}
				},
				"methodIdentifiers": {
					"getStorageSlot(address)": "5335c550",
					"getValue(address)": "3ccc0522",
					"setValues()": "800509d5"
				}
			},
			"storageLayout": {
				"storage": [
					{
						"astId": 5,
						"contract": "contracts/my_mapping.sol:MyMapping",
						"label": "balance",
						"offset": 0,
						"slot": "0",
						"type": "t_mapping(t_address,t_uint256)"
					}
				],
				"types": {
					"t_address": {
						"encoding": "inplace",
						"label": "address",
						"numberOfBytes": "20"
					},
					"t_mapping(t_address,t_uint256)": {
						"encoding": "mapping",
						"key": "t_address",
						"label": "mapping(address => uint256)",
						"numberOfBytes": "32",
						"value": "t_uint256"
					},
					"t_uint256": {
						"encoding": "inplace",
						"label": "uint256",
						"numberOfBytes": "32"
					}
				}
			},
			"userdoc": {
				"kind": "user",
				"methods": {},
				"version": 1
			}
		}
	}
}